{
  "contractName": "Claims",
  "abi": [
    {
      "constant": true,
      "inputs": [
        {
          "name": "",
          "type": "uint256"
        }
      ],
      "name": "claims",
      "outputs": [
        {
          "name": "",
          "type": "bytes32"
        }
      ],
      "payable": false,
      "stateMutability": "view",
      "type": "function"
    },
    {
      "payable": false,
      "stateMutability": "nonpayable",
      "type": "fallback"
    },
    {
      "constant": false,
      "inputs": [
        {
          "name": "_claim",
          "type": "bytes32"
        }
      ],
      "name": "put",
      "outputs": [],
      "payable": false,
      "stateMutability": "nonpayable",
      "type": "function"
    },
    {
      "constant": true,
      "inputs": [],
      "name": "count",
      "outputs": [
        {
          "name": "",
          "type": "uint256"
        }
      ],
      "payable": false,
      "stateMutability": "view",
      "type": "function"
    },
    {
      "constant": true,
      "inputs": [
        {
          "name": "claim",
          "type": "bytes32"
        }
      ],
      "name": "getSigner",
      "outputs": [
        {
          "name": "_signer",
          "type": "address"
        }
      ],
      "payable": false,
      "stateMutability": "view",
      "type": "function"
    },
    {
      "constant": true,
      "inputs": [
        {
          "name": "index",
          "type": "uint256"
        }
      ],
      "name": "getClaim",
      "outputs": [
        {
          "name": "_claim",
          "type": "bytes32"
        }
      ],
      "payable": false,
      "stateMutability": "view",
      "type": "function"
    }
  ],
  "bytecode": "0x608060405234801561001057600080fd5b506102d1806100206000396000f3fe608060405234801561001057600080fd5b50600436106100575760003560e01c806306661abd1461005c5780635aef24471461007a5780637a5ee0ca146100bc578063a888c2cd1461012a578063e3a8f7c61461016c575b600080fd5b61006461019a565b6040518082815260200191505060405180910390f35b6100a66004803603602081101561009057600080fd5b81019080803590602001909291905050506101a6565b6040518082815260200191505060405180910390f35b6100e8600480360360208110156100d257600080fd5b81019080803590602001909291905050506101c6565b604051808273ffffffffffffffffffffffffffffffffffffffff1673ffffffffffffffffffffffffffffffffffffffff16815260200191505060405180910390f35b6101566004803603602081101561014057600080fd5b8101908080359060200190929190505050610203565b6040518082815260200191505060405180910390f35b6101986004803603602081101561018257600080fd5b8101908080359060200190929190505050610224565b005b60008080549050905090565b60008082815481106101b457fe5b90600052602060002001549050919050565b60006001600083815260200190815260200160002060009054906101000a900473ffffffffffffffffffffffffffffffffffffffff169050919050565b6000818154811061021057fe5b906000526020600020016000915090505481565b336001600083815260200190815260200160002060006101000a81548173ffffffffffffffffffffffffffffffffffffffff021916908373ffffffffffffffffffffffffffffffffffffffff16021790555060008190806001815401808255809150509060018203906000526020600020016000909192909190915055505056fea165627a7a72305820ba828c2bf10fbc935ce65e58899b62c8e6544e051d1f65d9b5178a8ee89da0630029",
  "source": "pragma solidity ^0.5.8;\n\ncontract Claims {\n  bytes32[] public claims;\n  mapping (bytes32 => address) claimSigner;\n\n  function put(bytes32 _claim) public {\n    // if (claimSigner[_claim] != address(0)) revert();\n    claimSigner[_claim] = msg.sender;\n    claims.push(_claim);\n  }\n  \n  function count() public view returns (uint256) {\n      return claims.length;\n  }\n\n  function getSigner(bytes32 claim) public view returns (address _signer) {\n    return claimSigner[claim];\n  }\n\n  function getClaim(uint256 index) public view returns (bytes32 _claim) {\n    return claims[index];\n  }\n\n  function () external {\n    revert();\n  }\n}",
  "sourcePath": "/Users/noahthorp/dev_github/wallet_sketches/contracts/contracts/Claims.sol",
  "compiler": {
    "name": "solc",
    "version": "0.5.8+commit.23d335f2.Emscripten.clang"
  },
  "schemaVersion": "3.0.12",
  "updatedAt": "2019-08-21T15:32:04.946Z",
  "devdoc": {
    "methods": {}
  },
  "userdoc": {
    "methods": {}
  }
}